:020000040800F2
:10000000F006002089010008910100089301000812
:100010009501000897010008990100080000000000
:100020000000000000000000000000009B0100082C
:100030009D010008000000009F010008A1010008C8
:10004000C50F000811090008750D0008270C0008ED
:1000500051020008790B000843020008470200081B
:10006000490200084B0200084D020008A3010008E5
:10007000A3010008A3010008A3010008A3010008D0
:10008000A3010008A3010008A3010008A3010008C0
:10009000A3010008A3010008A30100084F02000803
:1000A000770D00087D0D00087B0D0008790D000814
:1000B0007F0D0008810D0008830D0008270500084A
:1000C000250500082B05000829050008290C000853
:1000D0002B0C0008850D0008050E0008070E00080F
:1000E00045020008250C0008C30F000800F002F8C4
:1000F00000F03AF80AA090E8000C82448344AAF188
:100100000107DA4501D100F02FF8AFF2090EBAE885
:100110000F0013F0010F18BFFB1A43F0010318473B
:100120000415000024150000103A24BF78C878C1D7
:10013000FAD8520724BF30C830C144BF04680C60ED
:10014000704700000023002400250026103A28BF35
:1001500078C1FBD8520728BF30C148BF0B60704739
:100160001FB51FBD10B510BD00F031F81146FFF7E7
:10017000F7FF00F077FF00F04FF803B4FFF7F2FF4E
:1001800003BC00F057F800000948804709480047C1
:10019000FEE7FEE7FEE7FEE7FEE7FEE7FEE7FEE737
:1001A000FEE7FEE704480549054A064B7047000094
:1001B000150D0008ED000008F0000020F0060020FA
:1001C000F0020020F002002070477047704775462B
:1001D00000F02CF8AE4605006946534620F00700B3
:1001E000854618B020B5FFF7DDFFBDE820404FF091
:1001F00000064FF000074FF000084FF0000B21F011
:100200000701AC46ACE8C009ACE8C009ACE8C009DD
:10021000ACE8C0098D46704710B50446AFF30080C6
:100220002046BDE81040FFF7A8BF00000048704717
:100230008C00002001491820ABBEFEE7260002001A
:1002400070477047704770477047704770477047F6
:10025000704700000549096821F01001034A116048
:1002600011460968014311607047000000200240F8
:1002700001460020034A106800F03800084310606F
:10028000704700000020024010B50121334800F003
:10029000FDF84FF4807032490880032088701020E8
:1002A000C870304800F066F84FF480712D4800F0B7
:1002B00035F901202A490880032088701020C87071
:1002C000294800F057F80121274800F027F90220BB
:1002D00023490880032088701020C870224800F04D
:1002E00049F80221204800F019F910201C49088023
:1002F000032088701020C8701C4800F03BF82020B4
:1003000017490880032088701020C870174800F033
:1003100031F8082012490880032088701020C87026
:10032000124800F027F82021104800F0F7F81021BB
:100330000E4800F0F3F808210C4800F0EFF8042014
:1003400007490880032088701020C870084800F012
:1003500011F80421064800F0E1F810BD0002300059
:10036000000000200008014000100140000C014086
:10037000001401402DE9F04102460025002600202E
:1003800000230024002791F803C00CF00F0591F81A
:1003900003C00CF0100CBCF1000F03D091F802C0A8
:1003A0004CEA050591F800C0BCF1000F31D014688B
:1003B00000202BE04FF0010C0CFA00F3B1F800C064
:1003C0000CEA03069E4220D183004FF00F0C0CFA7A
:1003D00003F7BC4305FA03FC4CEA040491F803C09C
:1003E000BCF1280F06D14FF0010C0CFA00FCC2F84A
:1003F00014C00AE091F803C0BCF1480F05D14FF0DA
:10040000010C0CFA00FCC2F810C0401C0828D1D323
:100410001460B1F800C0BCF1FF0F34DD5468002057
:100420002EE000F1080C4FF0010808FA0CF3B1F8C7
:1004300000C00CEA03069E4221D183004FF00F0C4E
:100440000CFA03F7BC4305FA03FC4CEA040491F8E8
:1004500003C0BCF1280F05D100F1080C08FA0CF814
:10046000C2F8148091F803C0BCF1480F07D100F125
:10047000080C4FF0010808FA0CF8C2F81080401C74
:100480000828CED35460BDE8F0810000F0B50A46DC
:10049000002300240021002500F00046B6F1004FA3
:1004A00002D11D4EF16901E01B4E7168C0F3034596
:1004B00083B200F44016B6F5401F08D121F07061F8
:1004C000154E766826F07066134F7E6012E000F4D9
:1004D0008016B6F5801F06D1032606FA05F4A1435F
:1004E00041F0706106E0460D360103FA06F6B143AD
:1004F00041F0706122B1460D360103FA06F6314330
:1005000000F00046B6F1004F02D1034EF16101E068
:10051000014E7160F0BD0000000001404161704774
:1005200001617047704770477047704700B54FF4DE
:1005300000700B49486100F08DF94FF48070084954
:10054000486100F087F94FF400700549086100F038
:1005500081F94FF400700249486100F07BF900BD59
:100560000010014008B54FF40070ADF80000032002
:100570008DF8020014208DF8030069460848FFF743
:10058000F9FE4FF48070ADF8000003208DF80200F2
:1005900014208DF8030069460148FFF7EBFE08BD03
:1005A0000010014000B54FF400700B49486100F0A5
:1005B00051F94FF480700849086100F04BF94FF48D
:1005C00000700549086100F045F94FF400700249D8
:1005D000486100F03FF900BD00100140F0B505464C
:1005E0000C4617461E4600F09DF808B90020F0BDE5
:1005F00000F030F900F02EF900F02CF906F0FE00C2
:1006000000F064F800F0D2F818B900F0B3F8002058
:10061000EDE7384600F05AF800F0C8F818B900F0D5
:10062000A9F80020E3E700F015F900F013F900F055
:1006300011F900F077F800F00DF900F00BF900F077
:1006400009F946F0010000F041F800F0AFF80CE0C5
:1006500000F012F82870012C02D1FFF7A3FF01E08F
:10066000FFF764FF6D1C601EC4B2002CF0D100F0D7
:1006700081F80120BBE7000000B5082300225801E3
:100680001149086114E05006020E4FF400700E4943
:10069000486100F0DFF84FF400700B49086100F08A
:1006A000D9F80948806800F4807008B142F001026E
:1006B000181EA3F10101CBB2E5D14FF4007002493D
:1006C0004861104600BD00000010014000B5024620
:1006D00008231BE04FF400701149486100F0BAF89C
:1006E00002F0800020B14FF480700D49086103E0F2
:1006F0004FF480700A4948615006020E00F0AAF8D3
:100700004FF400700649086100F0A4F8181EA3F128
:100710000101CBB2DED14FF400700149486100BD48
:100720000010014000B54FF480701149086140008D
:10073000086100F08FF80E48806800F4807008B9F6
:10074000002000BD4FF480700949486100F082F834
:100750000748806800F4807008B10020F1E74FF48A
:1007600080700349486100F075F80120E9E7000056
:100770000010014000B54FF400700B49486100F0D3
:1007800069F84FF480700849486100F063F84FF44D
:1007900000700549086100F05DF84FF4807002496F
:1007A000086100F057F800BD0010014000B54FF49B
:1007B00000701149486100F04DF84FF480700E4907
:1007C00008610846806800F045F84FF400700A4957
:1007D000086100F03FF80848806800F4807028B194
:1007E0004FF4007004494861002000BD4FF40070D0
:1007F000014948610120F8E70010014070B5064644
:100800000C461546FFF78EFF08B9002070BD05F0B5
:10081000FE00FFF75BFFFFF7C9FF18B9FFF7AAFF5C
:100820000020F3E72046FFF751FFFFF7BFFF18B99D
:10083000FFF7A0FF0020E9E73046FFF747FFFFF78B
:10084000B5FF18B9FFF796FF0020DFE7FFF792FF2B
:100850000120DBE7322001E0411E88B20028FBD1F5
:10086000704708B500214FF0006000F047F82520E0
:100870008DF8000000208DF801008DF802000120A5
:100880008DF80300684600F001F808BD70B500213E
:1008900000230F22C47804B3154C246804F4E064E8
:1008A000C4F5E064210AC1F10403CA40447804FAA3
:1008B00003F184781440214309010E4C0678A155B8
:1008C000047804F01F050124AC4005786D11AD00DB
:1008D00005F1E025C5F8004109E0047804F01F05A2
:1008E0000124AC40044D0678761145F8264070BDD1
:1008F0000CED00E000E400E080E100E0024A0A4084
:100900000243024B1A60704780FFFF1F08ED00E0B2
:100910007047000029B1064A92690243044B9A616C
:1009200004E0034A92698243014B9A6170470000D8
:100930000010024010B500F037F84FF4803000F09E
:10094000F5F800F053F90446012C23D11020FFF7ED
:1009500081FC0220FFF78CFC002000F0DBF8A002F5
:1009600000F018F9A00200F009F90021200400F0BD
:1009700023F9012000F01AF900BF392000F0A4F893
:100980000028FAD0022000F025F900BF00F0BAF8E4
:100990000828FBD1012145F23C00FFF7BBFF0121F4
:1009A0000846FFF7B7FF10BD0F48006840F0010090
:1009B0000D490860084640680C4908400A494860EB
:1009C000084600680A490840074908600846006868
:1009D00020F4802008600846406820F4FE0048604B
:1009E0004FF41F0088607047001002400000FFF8BD
:1009F000FFFFF6FE30B500210022002400232D4D1C
:100A00006D6805F00C0121B1042905D0082923D116
:100A100005E0294D056022E0274D05601FE0254DCA
:100A20006D6805F47012234D6D6805F4803402255D
:100A300005EB92421CB9214D554305600BE01D4D5D
:100A40006D6805F400351DB11C4D5543056002E08D
:100A5000194D5543056002E0174D056000BF00BF0A
:100A6000144D6D6805F0F0010909154D6B5C0568C2
:100A7000DD4045600F4D6D6805F4E061090A104DD9
:100A80006B5C4568DD4085600A4D6D6805F460511A
:100A9000C90A0B4D6B5C4568DD40C560054D6D684E
:100AA00005F44041890B074D6B5CC568B5FBF3F558
:100AB000056130BD0010024000127A0000093D00BF
:100AC000780000208800002010B501460022002395
:100AD00000204A11012A02D1094C236806E0022AAB
:100AE00002D1074C236A01E0054C636A01F01F0242
:100AF000012494401C400CB1012000E0002010BDF6
:100B0000001002400248406800F00C0070470000EE
:100B10000010024001460020034A506820F0F00017
:100B200008435060704700000010024011490968F6
:100B300021F480310F4A11601146096821F48021A7
:100B40001160B0F5803F03D0B0F5802F0ED106E0E4
:100B50000849096841F48031064A116007E00549F7
:100B6000096841F4A021034A116000E000BF00BF02
:100B7000704700000010024070470000014600204E
:100B8000034A506820F4E06008435060704700005A
:100B90000010024001460020034A506820F46050D3
:100BA00040EAC100506070470010024001490866E9
:100BB000704700000000424202460020044B586883
:100BC00020F47C1042EA01031843014B586070473F
:100BD0000010024001460020034A506820F0030044
:100BE00008435060704700000010024038B50020F4
:100BF00000900024002500BF3120FFF765FF054667
:100C00000098401C00900098B0F5A06F01D0002D16
:100C1000F2D03120FFF758FF08B1012400E0002492
:100C2000204638BD704770477047704710B500F0D8
:100C300001F810BD0CB50020019000903348006809
:100C400040F480303149086000BF3048006800F44B
:100C5000003000900198401C0190009818B901984C
:100C6000B0F5A06FF1D12948006800F4003010B150
:100C70000120009001E0002000900098012843D15D
:100C80002348006840F010002149086008460068C9
:100C900020F0030008600846006840F00200086089
:100CA0001A48406819494860084640684860084644
:100CB000406840F4806048600846406820F47C103A
:100CC00048600846406840F4E810486008460068FC
:100CD00040F08070086000BF0C48006800F00070B1
:100CE0000028F9D00948406820F00300074948600F
:100CF0000846406840F00200486000BF0348406872
:100D000000F00C000828F9D10CBD000000100240D2
:100D10000020024010B51348006840F0010011495E
:100D2000086008464068104908400E494860084677
:100D300000680E4908400B4908600846006820F426
:100D4000802008600846406820F4FE0048604FF4A8
:100D50001F008860FFF76AFF4FF0006004490860D9
:100D600010BD0000001002400000FFF8FFFFF6FE7B
:100D700008ED00E070477047704770477047704754
:100D80007047704710B540F22551194800F055F8EA
:100D900060B3174800F00CF91649174A12788854C6
:100DA00015480078072803D100201449087004E092
:100DB00011480078401C114908700E480E49097806
:100DC000405CFF280ED10B480C490978405CFE2896
:100DD00008D101200A490870002240F22551044838
:100DE00000F055F8054800780349087010BD000070
:100DF00000380140040000200D0000200E000020FB
:100E00000C0000207047704721B1828942F40052E3
:100E1000828104E082894DF6FF731A408281704717
:100E200002460020B1F5007F00D100BF13880B40BF
:100E30000BB1012000E00020704770B5024600248D
:100E400000230025002040F66A16B14200D100BF01
:100E5000C1F3421501F01F03012606FA03F3012D29
:100E600002D19689334006E0022D02D1168A334022
:100E700001E0968A33400C12012606FA04F4168823
:100E8000344013B10CB1012000E0002070BDF0B57A
:100E90000346002400260025002040F66A17B942C8
:100EA00000D100BF1846C1F3421401F01F0601270C
:100EB00007FA06F5012C01D10C3004E0022C01D117
:100EC000103000E014301AB107682F43076002E0C9
:100ED0000768AF430760F0BD2DE9F04786B00546CF
:100EE0000E460024A24600BFA1460027B08900B1EB
:100EF00000BF2F462C8A4CF6FF700440F088044354
:100F00002C82AC894EF6F3100440B0883189084336
:100F1000718908430443AC81AC8A4FF6FF4004401A
:100F2000B0890443AC8201A8FFF764FD1F488742E3
:100F300002D1DDF810A001E0DDF80CA0A88900F4D2
:100F4000004040B10AEBCA0000EB0A1031684900CA
:100F5000B0FBF1F807E00AEBCA0000EB0A103168B9
:100F60008900B0FBF1F86420B8FBF0F0040120091F
:100F7000642101FB1089A88900F4004040B13220AF
:100F800000EBC900B0FBF1F000F00700044308E0FB
:100F9000322000EB09106421B0FBF1F000F00F00EB
:100FA00004432C8106B0BDE8F08700000038014002
:100FB00001468888C0F308007047C1F308028280A8
:100FC00070477047704770B50A2637E0EC22492118
:100FD000C020FFF713FC0446EC221C210020FFF781
:100FE0000DFC0440EC221D210F20FFF707FC0440FC
:100FF000EC2221210920FFF701FC0440EC223321DF
:101000000620FFF7FBFB0440EC2234212620FFF7EB
:10101000F5FB0440EC223621A020FFF7EFFB044053
:10102000EC221F219820FFF7E9FB0440EC22562117
:101030000120FFF7E3FB044004B104E0301EA6F1F9
:101040000101CEB2C2D100BF002507E0EC221D2174
:101050002846FFF7D3FB0440681CC5B2102DF5DB12
:10106000204670BDFFF7FDFBFFF764FCFFF70CF9AE
:10107000FFF778FA00F07AFA41A000F0BDFA454C8B
:1010800000BF201EA4F10104FBD14FF4807142483F
:10109000FFF746FA01214148FFF742FA02213F4893
:1010A000FFF73EFA20213E48FFF73AFA394C00BFDD
:1010B000201EA4F10104FBD100F0D2F818B939A028
:1010C00000F09AFA02E03DA000F096FAFFF77BFFED
:1010D00018B940A000F090FA02E044A000F08CFAA9
:1010E00000F0D3F818B946A000F086FA02E04AA052
:1010F00000F082FA502000F0F0F818B94CA000F08F
:101100007BFA06E00221502000F084F94EA000F0A6
:1011100073FA002532E020212148FFF7FFF9102162
:101120001F48FFF7FBF908211D48FFF7F7F90421D5
:101130004A48FFF7F3F9174C00BF201EA4F1010441
:10114000FBD120211648FFF7EBF910211448FFF7D7
:10115000E7F908211248FFF7E3F904213F48FFF7B8
:10116000DFF90C4C00BF201EA4F10104FBD128467E
:101170006A1CD5B278220221FFF740FBCBE70000C2
:1011800053797374656D20706F776572206F6E216F
:101190000D0A0000FFFF0F00000801400010014091
:1011A000000C014073696C3930313320696E697409
:1011B000206572726F72210D0A00000073696C392C
:1011C00030313320696E697420646F6E65210D0AB9
:1011D0000000000063683733303120696E69742085
:1011E0006572726F72210D0A000000006368373368
:1011F000303120696E697420646F6E65210D0A00BC
:1012000073696C3931333420696E69742065727288
:101210006F72210D0A00000073696C39313334207C
:10122000696E697420646F6E65210D0A000000000C
:1012300074773238363720696E6974206572726F40
:1012400072210D0A000000007477323836372069A9
:101250006E697420646F6E65210D0A0000140140F0
:1012600010B5602205211020FFF7C8FA044660225D
:1012700008210720FFF7C2FA04406022092101205B
:10128000FFF7BCFA0440204610BD10B572220821B9
:101290003520FFF7B3FA04467A222F210020FFF70A
:1012A000ADFA0440204610BD38B504460D46002076
:1012B000009023462A4601216846FFF78FF99DF8E2
:1012C000000038BD70B504460E461546224631462C
:1012D0002846FFF793FA002070BD70B5054600243C
:1012E000FE212846FFF7E0FF00F0C0004410FF2178
:1012F0002846FFF7D9FF44EAE004FF2C00D00CB9E0
:10130000002070BD3F2280212846FFF7DBFF152219
:1013100060212846FFF7D6FFFF22FC212846FFF771
:10132000D1FF0120EDE770B506460D46022D34D100
:1013300000242AE020010E30C1B201223046FFF71E
:10134000C1FF2001C01DC1B212223046FFF7BAFF13
:1013500020010830C1B217223046FFF7B3FF200149
:101360000930C1B220223046FFF7ACFF20010A301D
:10137000C1B20C223046FFF7A5FF20010B30C1B2ED
:10138000D0223046FFF79EFF641C042CD2DBD4220F
:1013900041213046FFF796FF39E0012D34D100247A
:1013A0002AE020010E30C1B200223046FFF78AFF4A
:1013B0002001C01DC1B202223046FFF783FF200189
:1013C0000830C1B215223046FFF77CFF20010930FA
:1013D000C1B2F0223046FFF775FF20010A30C1B2DA
:1013E0000C223046FFF76EFF20010B30C1B2D02235
:1013F0003046FFF767FF641C042CD2DB40224121FA
:101400003046FFF75FFF02E04FF0FF3070BD002075
:10141000FCE7000070B506460D4600242AE02001D6
:10142000401CC1B2F8223046FFF74CFF2001801C5F
:10143000C1B264223046FFF745FF2001C01CC1B293
:1014400011223046FFF73EFF2001001DC1B280226D
:101450003046FFF737FF2001401DC1B280223046E1
:10146000FFF730FF2001801DC1B200223046FFF798
:1014700029FF641C042CD2DB29463046FFF753FFBA
:10148000082243213046FFF71DFF4222FA21304651
:10149000FFF718FF01229F213046FFF713FF52226A
:1014A0009E213046FFF70EFF0222CA213046FFF789
:1014B00009FF0222AA213046FFF704FF012273210F
:1014C0003046FFF7FFFE5122F9213046FFF7FAFEC2
:1014D00080227F213046FFF7F5FEE6229621304636
:1014E000FFF7F0FE0022AF213046FFF7EBFE0022AF
:1014F000B0213046FFF7E6FED42241213046FFF707
:10150000E1FE002243213046FFF7DCFE00224B21A2
:101510003046FFF7D7FE022D06D10623064AF021FA
:10152000304600F00DF805E00623044AF02130466D
:1015300000F006F870BD0000620000206800002086
:101540002DE9F04180460D4616461F46002400BF97
:1015500007E0325D2819C1B24046FFF7B3FE601CB8
:10156000C4B2BC42F5DBBDE8F081000000B585B037
:10157000012144F20400FFF7CDF94FF48060ADF88B
:10158000000003208DF8020004208DF80300694656
:101590001748FEF7EFFE4FF40070ADF8000003208F
:1015A0008DF8020018208DF8030069461048FEF7F8
:1015B000E1FE4FF4165001900020ADF80800ADF8A0
:1015C0000A00ADF80C00ADF810000C20ADF80E00CC
:1015D00001A90848FFF780FC012240F22551054887
:1015E000FFF755FC01210348FFF70EFC05B000BDD5
:1015F000000801400038014010B504460BE014F823
:10160000011B0748FFF7D9FC00BF80210448FFF702
:1016100007FC0028F9D020780028F0D110BD000088
:101620000038014044160008000000208C00000033
:1016300028010008D01600088C0000206406000075
:10164000440100080000000000000000000000004D
:1016500000000000000850B97070001212200CD079
:101660000000077F000850B97070000212F00CD023
:101670000000077F3333011032103210321032C1B4
:101680000000008014C0AAAA83B50900A000076B5F
:10169000130040010ED626008002658535007203D6
:1016A00015413A00C00383B50900A00083B509784D
:1016B0008500000004000000505452560000000055
:1016C00001020304010203040607080902040608D4
:04000005080000ED02
:00000001FF
